:100000000C947A020C9497020C9497020C94970229
:100010000C94F21B0C9497020C9497020C94970288
:100020000C9497020C9497020C9407230C94DB23F6
:100030000C94151E0C9497020C9497020C94970242
:100040000C9497020C9497020C9497020C949702CC
:100050000C9497020C94B81E0C9497020C9497027F
:100060000C9497020C9497020C9497020C949702AC
:100070000C9497020C9497020C9497020C9497029C
:100080000C9497020C9497020C9497020C9497028C
:100090000C9497020C9497020C9497020C9497027C
:1000A0000C9497020C9497020C94970200001E0087
:1000B0001F002000210022002900000014001A0067
:1000C0000800150017002A002B00160016630761B0
:1000D00009620A003900E0001D001B00060019003B
:1000E000050036060000E2002C00015828000351EC
:1000F000025800000058000000000000000000004E
:1001000029002300240025002600270000002A00E3
:100110001C0018000C0012001300000039000B0036
:100120000D720E710F0033002B00900011001000B3
:10013000360037003800E40001580000280002585B
:100140002C00E6000000000000000000000000009D
:100150000058000000000000000000000000000047
:10016000290000003A003B003C003D003E004400F6
:100170002B003F0040634161426243004500E000C4
:100180001D011B0106011901000037060000E200F5
:100190002C00010028000351025800000058000004
:1001A0000000000000000000290000000000000026
:1001B0000000000000002A004C004A0052004D00E0
:1001C0004B00000039004900500051004F004E0024
:1001D0002B009100310034002F0030003500E40086
:1001E00001000000280002582C00E600000000007A
:1001F00000000000000000000058000000000000A7
:100200000000000000000000290000001E001F0088
:100210002000210022002A002B00230024002500BA
:10022000266227000000E000540055002D00570012
:10023000670063000000E2002C0001002800035169
:100240000100000000580000000000000000000055
:1002500029000000000000000000000000002A004B
:100260001E001F00200021002200000000002300CB
:1002700024722571260027002B00630067005700B9
:10028000560055005400E400015800002800010009
:100290002C00E6000000000000000000000000004C
:1002A00000580000000000000000000000000000F6
:1002B000290000003A003B003C003D003E004400A5
:1002C0002B003F0040004100420043004500000079
:1002D0000000FD00FE00FF00000000000000E20042
:1002E0002C0001582800045102580000005800005A
:1002F00000000000000000002900000000000000D5
:100300000000000000002A00FD00F100ED00F200F6
:10031000000000003900FE00EF00EE00F0000000D9
:100320002B000000FF00FB00F900FA00FC00E400D5
:1003300001580000280002582C00E60000000000D0
:100340000000000000000000005800000000000055
:10035000000000000000000000000000000000009D
:10036000000000000000000000000000000000008D
:10037000000000000000000000000000000000007D
:10038000000000000000000000000000000001006C
:10039000000000000000000000000000000000005D
:1003A000000000000000000000000000000000004D
:1003B000000000000000000000000000000000003D
:1003C000000000000000000000000000000000002D
:1003D000000000000000000000000000000000001D
:1003E000000000000000000000000000000000000D
:1003F000000000001603460075006E0067006F00E5
:10040000530070006C006900740000000C0346008B
:1004100075006E0067006F00000004030904090204
:100420003B00020100A0FA090400000103010100E1
:100430000921110100012240000705810308000184
:10044000090401000103000000092111010001223B
:10045000490007058203200001120100020000008C
:10046000089258331201000102000105010902A19E
:100470000185020901A100050919012908150025B6
:1004800001950875018102050109300931158125A1
:100490007F95027508810609381581257F950175BC
:1004A000088106050C0A38021581257F950175081B
:1004B0008106C0C005010906A101050719E029E769
:1004C00015002501950875018102950175088101C6
:1004D0000507190029FF150026FF009506750881FC
:1004E0000005081901290595057501910295017509
:1004F000039101C011241FBECFEFDAE0DEBFCDBFF4
:1005000011E0A0E0B1E0E6ECFCE402C005900D9241
:10051000A636B107D9F722E0A6E6B1E001C01D92E8
:10052000A939B207E1F70E941D140C944B260C94D4
:10053000000081E0089581E008950E949B020895E3
:1005400008950E94A0020895A5E0B0E0EAEAF2E072
:100550000C94A92549835A8330916D0189819A8130
:10056000311119C0662399F0222389F00E94830873
:10057000182F682F89819A810E945F0869817A818A
:10058000812F0E94D40E2596E3E00C94C5250E948D
:100590007108182FF3CF0E94830869817A81F1CF07
:1005A000FC01262F408151816281738184810E94E8
:1005B000A402089581E00895CF93DF93EC0160E0F9
:1005C0000E94D002BE010E94A102DF91CF91089546
:1005D0000E943B1008950E943F10089508950E94C4
:1005E0002A070E94EE022FEF84E39CE02150804016
:1005F0009040E1F700C0000008950E94EF020E94C1
:10060000DC1E08950E94EF020E94ED1E0895A2E0F4
:10061000B0E0EDE0F3E00C94A8258C0161E00E94CD
:10062000D0029A838983B801CE0101960E949F1758
:10063000811105C080E02296E4E00C94C425B80145
:1006400089819A810E949D028823A1F3B801898142
:100650009A810E94001B882369F3B80189819A81DD
:100660000E940716882331F3B80189819A810E947C
:1006700075178823F9F2F8018281882371F0898146
:100680009A818B35FDE59F0701F158F48115ECE562
:100690009E0791F08F3D9C4591F0C8010E94990200
:1006A000CACF8D352DE5920769F090F0883A9D45C7
:1006B000A1F70E940203BECF0E94FD02BBCF0E94A1
:1006C000360DF7CF0E947B0CE8CF0E94850CE5CF5A
:1006D0000E94890CE2CF0E94F21D0E9488030895B7
:1006E0000E948C030E94F71D089508950E947503CF
:1006F000089581E008950E94790308950895CF93A5
:10070000C82F0E9476038C2F0E947B03CF910895FF
:1007100080E00E947F0308950E94181D0E947F03BD
:100720000895CF930E94181DC82F809168018C17DF
:1007300079F0C09368010E94811E609369017093F3
:100740006A0180936B0190936C018C2F0E947F0350
:10075000CF910895ABE0B0E0E0EBF3E00C94AA2574
:100760004F83588769877A878B8761110E94C60BF0
:100770001E821D8285E0FE013796DE0111960190F2
:100780000D928A95E1F78C819D81892B61F44981D5
:100790005A816B817C818D819E810E94EF0A2B960C
:1007A000E2E00C94C62589819A8189238F3F79F3F1
:1007B000CE0101960E94DA028111E9CFF0CFFC014F
:1007C000808191810E94B5080895CF93C82F882316
:1007D000C9F08238C9F40E94181D81FD13C089E355
:1007E0000E947E0B0E94E70B2FEF87EE93E02150D3
:1007F00080409040E1F700C0000089E30E94860B32
:100800000E94E70BCF9108958338A1F40E94181D30
:1008100080FDF8CF83E50E947E0B0E94E70B2FEF4F
:1008200081EE94E0215080409040E1F700C000004C
:1008300083E5E4CF8438A1F40E94181D82FDE2CF45
:1008400087E40E947E0B0E94E70B2FEF81EE94E07D
:10085000215080409040E1F700C0000087E4CECFF7
:100860008CEF8C0F813A90F46C2F80910001909165
:1008700001010E94831D882329F08C2F0E94860B82
:100880000E94E70B8C2F0E947E0BBACF80E28C0F68
:10089000883048F4C77081E001C0880FCA95EAF734
:1008A0000E94A90BADCFCD3E08F4ACCF8C2F0E9497
:1008B000A1140E944B15A6CF882309F455C0823895
:1008C00079F40E94181D81FF4FC089E30E947E0BBE
:1008D0000E94E70B89E30E94860B0E94E70B0895B4
:1008E000833859F40E94181D80FF3EC083E50E94A2
:1008F0007E0B0E94E70B83E5EECF843859F40E940B
:10090000181D82FF31C087E40E947E0B0E94E70B16
:1009100087E4E1CF9CEF980F913AE8F290E2980FCC
:10092000983050F4877091E001C0990F8A95EAF7EA
:10093000892F0E94AF0BD1CF9BE5980F933028F4FD
:1009400090E080E00E94451D089598E5980F97314A
:1009500028F490E080E00E945B1D08958D3E20F019
:100960000E94F5140E944B1508951F93CF93DF93B7
:10097000182FEB010E94E503209739F4812F0E9484
:100980005C04DF91CF911F9108958FE99FE001975B
:10099000F1F700C000002197EFCF62E370E08933E8
:1009A00011F460E570E00E94B5040895882321F0F9
:1009B0000E94A90B0E94E70B0895882321F00E9452
:1009C000AF0B0E94E70B0895B0E0A0E0EAEEF4E080
:1009D0000C94A3256C01D62FC72FFC011281F58042
:1009E000F2949FE0F9220E949F0BE82E8823B9F031
:1009F000E12E1123A1F08C2F807F803421F080E242
:100A00008D0F8830D0F080916D0282FF16C082E099
:100A10000E944A0C0E949F0B91E0E82EE926BC2E12
:100A2000B2948FE0B822FBE0FB1508F468C0EB2D10
:100A3000F0E0E35BF94D0C949425E12CF0CF0C2F02
:100A40000F70C07F11F00295007F112399F00023F1
:100A500059F080E28D0F883010F0D11107C0802F3F
:100A60000E94A90B0E94E70B8D2F41C0802F0E948E
:100A7000B90BF8CF8D2F0E945C04002309F43FC00E
:100A800080E28D0F883010F0D11104C0802F0E94B9
:100A9000AF0B03C0802F0E94BF0B0E94E70B2FC03B
:100AA0000C2F0F70C07FC03211F00295007FDD2344
:100AB00081F0D13009F463C0112309F46DC0FF2027
:100AC00009F463C0F601858180FFCECF8F708583E6
:100AD0005CC080916D0282FD33C0112359F0002368
:100AE00029F0802F0E94A90B0E94E70B80E00E9452
:100AF000E50305C080E00E945C040111C7CFEB2D27
:100B0000E850FF0B349720F40E94181D0E947F03C9
:100B1000EE2089F00E949B0B80FD0DC0F601128231
:100B20000E94950B0E94BD07C6010E94F2060E941A
:100B3000950B0E94CD07CDB7DEB7E9E00C94BF2539
:100B4000112389F0F11006C00E94C90B802B0E946E
:100B5000D604D5CF21E0F212F7CF0E94C90B802B2B
:100B60000E94D00BCCCFF11006C00E94DD0B802F6D
:100B70000E94DD04C4CF31E0F31609F2F6CF112351
:100B800031F083E08F1508F4BACF802FE0CF92E0E8
:100B90009F1508F4B4CFEBCFFF2049F3D93369F4A4
:100BA000FFEF27EE33E0F15020403040E1F700C086
:100BB00000008D2F0E945C04A2CF8FEF90E7E2E04F
:100BC00081509040E040E1F7F2CF8D2F112329F0C2
:100BD0000E94A1140E944B1592CF0E94F514FACFE7
:100BE0008C2F8370A1F511118ACF4D2F4295469518
:100BF0004770440F440F2D2F2F7030E0042E02C099
:100C0000220F331F0A94E2F790E080E0D4FF09C07E
:100C10008FE090E002C0880F991F4A95E2F7809517
:100C20009095C695C695C370822B932BC23049F020
:100C300058F4C13019F00E948B0761CF0E948207DF
:100C40005ECF0E9494075BCF0E947F0758CF8695A6
:100C5000112311F08C2F8170882309F450CF4D2F70
:100C6000429546954770440F440F2D2F2F7030E06A
:100C7000042E02C0220F331F0A94E2F790E080E0B6
:100C8000D4FF09C08FE090E002C0880F991F4A95F9
:100C9000E2F780959095C695C695C370822B932BED
:100CA000C23049F058F4C13019F00E94F80727CF3C
:100CB0000E94EF0724CF0E94010821CF0E94A307C2
:100CC0001ECFCF70112329F08C2F0E94BD078D2FCE
:100CD0003ECF8D2F0E94DD048C2F0E94CD070FCFB9
:100CE000D23F51F160F4D03FB9F0D13F81F01123F0
:100CF00009F449C0F110B8CE8C2F8F7121C0D33FB9
:100D000011F1D43FA1F780916D0282FD26C08C2F96
:100D10008F71112311F314C0112349F0F2E0FF1574
:100D200008F4EDCE8C2F8F710E94DF07E8CE23E010
:100D30002F1508F4E4CEF6CF8C2F8F711111CDCF83
:100D40000E94BD07DCCE112329F08C2F8F710E94E9
:100D5000B107D5CE0E94AC07D2CE112349F0CF7196
:100D60008C2F0E94BD0763E08C2F0E942C0CC7CEF5
:100D700081E00E944A0C31E03F1508F0C0CE82E0CD
:100D80000E944A0CBCCEFF2091F0D93341F48FEF82
:100D900097EEE3E081509040E040E1F708CFFFEFAD
:100DA00020E732E0F15020403040E1F700CF8C2FB7
:100DB0008F7193CF0F931F93CF93DF93EC016881D3
:100DC00079818A810E94C0088C010E940A080E94D1
:100DD0007E07B801CE010E94E404DF91CF911F91FC
:100DE0000F910895CF93DF93EC018B819C81892B28
:100DF00029F08881998189238F3F51F4DF91CF9128
:100E00000895CE010E94DA06CE010E94DC02F6CFE0
:100E1000CE010E9407038111F4CF0E949F0B88230B
:100E200069F38A81882351F380916D0282FFE6CFB6
:100E300082E00E944A0CE2CF0E94C60B0E94E70BA0
:100E40000E9467150E944B1508950E948E0B0E9408
:100E50001C0708950E94B60B0E94250708959295DD
:100E60009F70963091F058F4925F9F70923058F4D2
:100E7000803F19F030F4883E30F481E008959A5FA5
:100E8000F4CF843FD1F380E00895883EB0F3813FF2
:100E9000D1F7F3CFFC0183819481892B29F08081E4
:100EA000918189238F3F11F480E0089580819181A1
:100EB0000E94B5080E942F070895A5E0B0E0E3E680
:100EC000F7E00C94AA252596E2E00C94C625A6E04E
:100ED000B0E0EDE6F7E00C94AA252696E2E00C944B
:100EE000C62508950E94710708950E947207909385
:100EF0009D0180939C010E941C07089508950E9403
:100F00007507089520919C0130919D01822B932BB0
:100F10000E947507089520919C0130919D018223C4
:100F200093230E947507089520919C0130919D01A3
:100F3000822793270E94750708950E9471070895DC
:100F40000E949D0708950E94A00790939B018093A3
:100F50009A010E941C07089590E080E00E94A30778
:100F6000089521E030E0A90102C0440F551F8A9581
:100F7000E2F7CA010E94A307089521E030E002C011
:100F8000220F331F8A95E2F780919A0190919B017D
:100F9000822B932B0E94A307089521E030E002C02A
:100FA000220F331F8A95E2F72095309580919A01A0
:100FB00090919B01822393230E94A307089521E02F
:100FC00030E002C0220F331F8A95E2F780919A0128
:100FD00090919B01822793270E94A3070895209157
:100FE0009A0130919B01822B932B0E94A3070895B5
:100FF00020919A0130919B01822393230E94A307A1
:10100000089520919A0130919B01822793270E9495
:10101000A30708950895262F277091E001C0990F26
:101020002A95EAF723E0769567952A95E1F7660F0A
:10103000771F660F771FFA01E60FF71F50E040E0B9
:10104000682F70E08191DF0111979B01042E02C08F
:10105000369527950A94E2F72170219528272923B0
:1010600028272C934F5F5F4F4430510559F708955F
:10107000A82FA77023E0969587952A95E1F7880F0A
:10108000991F880F991FFB01E80FF91F50E040E0FE
:1010900080E0219130E00A2E02C0369527950A940F
:1010A000E2F721703327042E01C0220F0A94EAF7D9
:1010B000822B4F5F5F4F4430510559F70895262F1B
:1010C0009C3070F4873060F4682F70E087E0989F60
:1010D000600D711D11244EE651E0822F0E940B0815
:1010E0000895292F9C3068F4873058F490E06EE61C
:1010F00071E037E0239F800D911D11240E94380874
:10110000089580E00895B0E0A0E0E9E8F8E00C94EC
:10111000A3257C0100919A0110919B0180919C0173
:1011200090919D01082B192BCFE0D0E0CC24C394E3
:10113000D12CBC2EC6010C2E02C0880F991F0A9418
:10114000E2F780239123892B49F4219790F7B12C62
:101150008B2DCDB7DEB7E9E00C94BF25B7018C2FFE
:101160000E94EF0E019789F3F3CFCF93DF93EC0149
:101170000E948308BE010E94EF0EDF91CF91089577
:101180001F93CF93DF93EB0190916D01992339F079
:10119000CB010E94B508DF91CF911F91089588235C
:1011A00069F0CB010E948308182F682FCE010E949E
:1011B0005F08BE01812F0E94EF0EEDCFCB010E9490
:1011C0007108182FF6CF1F93CF93DF93C0919E0124
:1011D00016E080919F018C1304C0DF91CF911F9185
:1011E0000895D0E01C9FF0011D9FF00D1124E056E2
:1011F000FE4F4081518162817381848195810E947B
:1012000067072196C770E5CF4091D0015091D10179
:101210006091D2017091D3018091D4019091D50158
:101220000E94670708951F93CF93DF938091D501A4
:10123000807F09F049C08091D201882309F444C01D
:1012400080919E01C0919F016091D0017091D10168
:10125000A091D301B091D401D62FD72316E0C8179F
:1012600099F190E0109711F0DF3F19F40196877023
:10127000F6CF189F9001199F300D1124F901E05607
:10128000FE4F41814713F2CF40814613EFCF428199
:101290004111ECCF438154814A1B5B0B483C510503
:1012A00028F78091D5018F7080618093D501F90175
:1012B000EB55FE4F80818F708061808380ED91E0DF
:1012C0000E94F2060E94E308DF91CF911F910895DA
:1012D000A1E1B0E0EEE6F9E00C94A2258C0185E0F6
:1012E000F801DE011D9601900D928A95E1F7F80153
:1012F000E28080EDC82E81E0D82E6091D3017091FC
:10130000D4016115710509F44EC19091D00120916D
:10131000D101892F82238F3F09F445C1408151813A
:10132000A380B480F090D201F501E61BF70BFF20FB
:1013300009F4EAC08091D501382F307FE83CF105EF
:1013400008F0A3C031116DC0FE2C251316C09413F4
:1013500014C0E11012C08F7080618093D5010E948B
:101360000409C6010E94F2068091D501F801858327
:101370008F2D6196EAE00C94BE25A114B10429F0EA
:10138000842F85238F3F09F027C180E0F82FF1706B
:10139000DF2E80FF3CC080919E0120919F0136E0AE
:1013A000821315C04D875E878D859E850E94B50886
:1013B000292F22952F702230F0F0243018F59F70DD
:1013C000F1F0F8019581907FD1F4D12C1EC090E00E
:1013D000389FF001399FF00D1124E056FE4F6181D6
:1013E000651306C06081641303C06281E6120FC0FA
:1013F00001968770D5CF9F7011F0882331F3805EFE
:10140000883018F3C8010E94F206FD2CB1CFEE20FF
:1014100009F4AECF8091D50181608093D501F12C84
:10142000A7CF251306C0941304C0F801EE2009F4D9
:1014300087C0C8010E944A07882319F1EE2009F1EC
:101440008091D501803270F02091D0013091D1018E
:1014500038872F831986BB86AA868C87CE0107968C
:101460000E94F20686E0F801A0EDB1E001900D9235
:101470008A95E1F70E9413090E940409FF24F3945E
:1014800077CFC8010E94F206F9CF311113C07A2D2F
:10149000B98AA88A6E2D89890E945D0780ED91E046
:1014A0000E94F20686E0F60111928A95E9F70E9401
:1014B0000409B5CF25130FC094130DC0E1100BC064
:1014C000F8018583C8010E94F20686E0F6011192B8
:1014D0008A95E9F74DCFC8010E944A07882389F20F
:1014E000EE2079F28091D501803208F4BBCF2091B3
:1014F000D0013091D1013A8329831B82BD82AC8215
:101500008E83CE010196ACCFE83CF10508F03EC0D9
:10151000FE2CEE2009F4B5CF25132AC0941328C061
:101520008091D50180FD1BC0982F907FC1F0F801FC
:101530008583903F31F0982F907F905F8F70892B3B
:101540008583C8010E94F20686E0F801A0EDB1E0B3
:1015500001900D928A95E1F70E94040909CF86E077
:10156000F801A0EDB1E001900D928A95E1F700CF6E
:10157000C8010E944A07811175CF8091D501816011
:101580008093D501C8010E94F206F2CE7A2DB98A65
:10159000A88A6E2D89890E945D0786E0F601119266
:1015A0008A95E9F7D9CFEE2009F46BCFC8010E94E4
:1015B0004A07F82E882309F464CF86E0F801A0EDED
:1015C000B1E001900D928A95E1F780ED91E00E94E3
:1015D000DF030E941309C0CF81E08E25D7CEACE097
:1015E000B0E0E5EFFAE00C94A9254F8358876987AE
:1015F0007A878B879C87CE0107960E94680988238B
:1016000069F08A859B85892B39F04F815885842F15
:1016100085238F3F09F06BC016E05FC086E0FE01B6
:101620003796DE01119601900D928A95E1F78A8531
:101630009B85892B89F388859F8189238F3F61F35F
:1016400020919F0130E0C901019687709927409150
:101650009E014817190671F40E942A0710929F01F3
:1016600010929E0186E0E0EDF1E0DF011D928A9587
:10167000E9F7D2CF96E0929FD001939FB00D11244D
:10168000A056BE4FFE01319601900D929A95E1F75A
:1016900080939F010E94E308BFCF819FC001112466
:1016A00080569E4F0E9468098823E9F0E0919E01D0
:1016B0001E9FF0011124E056FE4F4081518162814E
:1016C0007381848195810E94670780919E0190E0DB
:1016D00001968770992780939E0180919E01909139
:1016E0009F018913DACF2C96E3E00C94C525698518
:1016F0007A858B859C850E9467078ECF682F8091A5
:101700000001909101010E94B91D0895682F8091F8
:101710000001909101010E94BC1D0895809100017B
:10172000909101010E94BF1D08958091DE01859571
:101730008595859508958091DE0187700895909133
:10174000DE01977081E009F480E008958091E9015D
:1017500008959091E901892B8093E901089580957E
:101760009091E90198239093E90108951092E9017D
:1017700008959091E801892B8093E8010895809560
:101780009091E80198239093E80108951092E80160
:1017900008958091DF01089508950E94CC0B08956B
:1017A00090916D0292FF08C09091DF01981721F08F
:1017B0008093DF010E94CD0B08958091DF01882383
:1017C00029F01092DF0180E00E94CD0B0895CF93A5
:1017D000DF93E0910001F09101018091E9018083A4
:1017E000E0910001F091010180819091E801892B45
:1017F00080839091DF01992381F0E0910001F091C5
:1018000001018081892B80838091000190910101E9
:101810000E94711D81110E94DD0BC0910001D091C9
:10182000010148E050E066ED71E0CE010E94F32531
:10183000892B59F088E0FE01A6EDB1E001900D92F0
:101840008A95E1F7CE010E942C1DDF91CF9108957A
:1018500008950E94280C089590916D0292FF11C086
:1018600098E0899F90011124622B6093DE010E9411
:10187000BD078091DE018595859585950E94290C8F
:1018800008950E94BD0708951092DE0180E00E9435
:10189000290C08959091DE01809589238093DE01C3
:1018A000282F277091F4282F082E000C330B921745
:1018B000130659F090916D0292FF07C085958595AA
:1018C00085950E94CD070E94440C089590916D0269
:1018D00092FB222720F9281769F080FB92F9909358
:1018E0006D0280916C0290916D020E94B00C82E0BA
:1018F0000E944A0C089580916D0282FB882780F92E
:1019000091E089270E94660C089581E00E94660C90
:10191000089580E00E94660C089590E080E00E94A7
:10192000112621E0883E9E4F09F020E0822F089585
:1019300082E090E00E940926089583E090E00E94F2
:1019400009260895CF9384E090E00E940926C82FCD
:1019500082E290E00E940926982F8C2FCF91089563
:10196000CF93C92F682F84E090E00E9417266C2F38
:1019700082E290E00E941726CF910895AB01BC014E
:101980008FE090E00E9429260895AB01BC0183E11D
:1019900090E00E942926089560E070E0CB010E944B
:1019A000C50C089560E070E0CB010E94BE0C0E945F
:1019B000CC0C089568EE7EEF90E080E00E94352622
:1019C00060E082E090E00E94172660E083E090E013
:1019D0000E94172610929D0110929C0160E084E005
:1019E00090E00E94172664E082E290E00E941726B1
:1019F00060E085E090E00E94172660E086E090E0DD
:101A00000E9417266FEF87E090E00E94172640E0C3
:101A100050E0BA0188E090E00E94292660E08DE065
:101A200090E00E94172640E050E0BA0188E190E083
:101A30000E94292660E087E190E00E94172640E09E
:101A400050E0BA018CE190E00E94292670E060E04D
:101A500080E290E00E94352640E050E0BA0188E143
:101A600090E00E9429260E94D20C08950E94DA0C70
:101A70000895682F8EE090E00E94172608950E9436
:101A8000811E6093FC017093FD018093FE01909391
:101A9000FF016093F8017093F9018093FA0190932C
:101AA000FB010895089508950E94530D0895089527
:101AB0000E94570D089589E190E10E940E1D0E9439
:101AC000520D0E94540D08950E9417120895089512
:101AD00008950E94670D0E94680D08950E941C10D1
:101AE0000E947E0308950E946C1E0E94D90F0E94DE
:101AF00034120E9446110E946E0D0E94EF150E9442
:101B00003E120E94580D0895AAE0B0E0EAE8FDE018
:101B10000C94A2250E949B118CEEA82E81E0B82E79
:101B2000750110E0F70101917F01812F0E944210A1
:101B30001F5F1C3009F440C00817A1F38091000218
:101B400081FD0E9448100E94640DC82E10E0812F74
:101B50000E944210082FF50181915F01081731F1B1
:101B6000F12CEE24E394D02ED8268D2D8E21B1F0C9
:101B7000CC20A1F0FE821F8391E0802F8E2109F4FA
:101B800090E098870E94751E8160782F9A878987D8
:101B90004E815F8168858A850E94AA03F394EE0CCA
:101BA000F7E0FF12E2CFF501319700831F5F1C3091
:101BB00071F60E943F0D20C00813C0CF0E94751E11
:101BC0008C018091EA019091EB0108171907A1F0AF
:101BD0008FEF89838A831B820E94751E8160782F14
:101BE0009D838C8349815A816B818D810E94AA03D8
:101BF0001093EB010093EA010E9417120E948315D3
:101C00000E9491032A96EAE00C94BE25CF93DF93BD
:101C10000E94F40EEC01811522E5920778F58115FA
:101C200031E5930708F08FC08F3F910509F0B8F4B4
:101C30008D3E910508F06FC0853A910540F48430DF
:101C4000910548F4019739F0D0E0C0E004C0805E0F
:101C500091090897C8F7CE01DF91CF9108958115BA
:101C600040E5940708F05CC0C11580E4D80708F08F
:101C700054C0C11520E2D20770F3E6CF811536E5D6
:101C8000930718F5811545E5940708F075C0C1154F
:101C900084E5D80708F06BC09E01237033279C2F82
:101CA00096959695C115D34508F452C0C1E0D0E091
:101CB00002C0CC0FDD1F2A95E2F730E2939FC001EE
:101CC0001124C82BD92BDA68C6CFC1158AE5D807ED
:101CD00078F4C11529E5D20708F058C0C11538E5D8
:101CE000D30708F4B1CFDC2FCC27C06FD06AB3CFB5
:101CF000CE0190568115904208F0A6CF8D2F8F719E
:101D00000E94960F90E0982F882788279F719C014A
:101D10002C2BE90139C0D0659ECFDF70D06A9BCFF4
:101D20008370992721E030E002C0220F331F8A958B
:101D3000E2F7C695C69580E2C89FE0011124C22B48
:101D4000D32BDD6888CFD82FCC27C16FD06A83CF43
:101D5000C1E0D0E002C0CC0FDD1F2A95E2F720E2FF
:101D6000929FC0011124C82BD92BDC6874CFDC2FC3
:101D7000CC27C46FD06A6FCF0E94960FC82FD0E0D7
:101D8000DC2FCC27CC27DF71D06265CF8C2F8F70F2
:101D90000E94960F34E0D695C7953A95E1F7CF703B
:101DA0009C2FEC01D06957CF972F7C30A8F4673077
:101DB00098F470E027E0929F600D711D1124FB01E3
:101DC00094E5899FE00DF11D1124EE0FFF1FE455EE
:101DD000FF4F85919491089580E090E008950E94CE
:101DE000D40E0E94060E089582389105B9F1B0F420
:101DF0008133910509F47DC048F48932910509F4D5
:101E00006DC08A32910509F47BC008958533910530
:101E100009F45FC08933910509F10895833E910566
:101E2000D9F138F4803E910529F1823E910579F18E
:101E30000895863E9105D9F1873E910509F43EC08B
:101E4000843E910541F520916D0221FF24C08091CF
:101E50006C0284FD19C087EE90E0089520916C0219
:101E6000237009F05AC020916D0223FF14C089E24B
:101E700090E0089520916C0220FD38C030916D02F1
:101E800030FF09C024FF43C090E080E00895209116
:101E90006C0222FDF7CF089520916C0222FD3AC01A
:101EA00030916D0230FD39C024FFF5CFEDCF209188
:101EB0006C0223FFF0CF24FDE7CFCDCF20916C0241
:101EC00023FD2EC030916D0231FFEECF84EE90E005
:101ED000089520916C0225FFDECFC9CF20916C02BE
:101EE00025FD21C020916D0223FFD5CF89E390E02D
:101EF000D2CF20916C0226FFCECF8AE290E00895E7
:101F000020916C0226FFC7CF81E390E0089583EE15
:101F100090E0089582EE90E0089580EE90E00895BC
:101F200086EE90E0089585E390E0089590916C022C
:101F300092FF06C0282F28712830F9F4877F84602B
:101F400093FF06C0282F28712831F1F4877E846121
:101F500020916D0220FF06C0382F38713830D9F437
:101F6000877F816021FF06C0282F28712831D1F496
:101F7000877E816194FD877E0895282F2471243007
:101F8000F9F68B7F8860DCCF282F2471243101F78C
:101F90008B7E8861DDCF382F3171313019F78E7F1C
:101FA0008860E0CF282F2171213121F78E7E886152
:101FB000E1CF109268021092690210926A021092A8
:101FC0006B020895CF92DF92EF92FF926B017C013A
:101FD0000E94171281110EC00E94811EC61AD70AD4
:101FE000E80AF90AC0926802D0926902E0926A0295
:101FF000F0926B02FF90EF90DF90CF9008950F93D7
:102000001F930E941712882329F00E94811E1F919E
:102010000F9108950E94811E00916802109169023B
:1020200020916A0230916B02600F711F821F931F13
:10203000EECF80E0089508950E948D0C811102C0BA
:102040000E94360D0E94980C809300020E94A20C00
:1020500090936D0280936C020E941B100E949D0C55
:1020600090E00E947F0780919A0190919B010E94CD
:10207000A007089508950E943A10089508950E94B7
:102080003E100895E82FF0E0E558FD4F8081089557
:10209000089580E58A95F1F7089500C008950E949B
:1020A0004910089508950E9452100895A6E0B0E0E6
:1020B000ECE5F0E10C94A6250E941712F82E609131
:1020C0008702882309F440C086E0E82E8E010F5F66
:1020D0001F4FF8018E2D11928A95E9F7862F90E017
:1020E000B80185589D4F0E944C128823B9F0809109
:1020F0006E0290E046E050E0B80185589D4F0E9486
:10210000F32521E020930102892B91F4F12C0E9408
:10211000EB028F2D2696E6E00C94C22580910102F9
:102120008823A1F3F8011192EA94E9F710920102D1
:10213000A0916E02B0E0A558BD4F86E0F801019075
:102140000D928A95E1F7E3CF70E065587D4F80915D
:102150006E0290E085589D4F0E94D3120E9453104A
:10216000D8CFF894E82FE295EF70F0E031A1282F56
:102170002F7081E090E001C0880F2A95EAF7982F30
:102180009095932391A392A1892B82A3789408958B
:102190000F931F93CF93DF93C9E0D1E089918F3FD5
:1021A00011F00E94B11081E0CF30D807B9F7C2E03A
:1021B000D1E009E011E089918F3F11F00E94B11048
:1021C0000C171D07C1F7DF91CF911F910F91089553
:1021D000B0E0A0E0EEEEF0E10C94A425EC01D62EE8
:1021E000062F10E0C801875F9E4F7C01FC018081B3
:1021F0008F3F09F444C0F894E82FE295EF70F0E0C7
:1022000091A18F7021E030E001C0220F8A95EAF79A
:10221000892F822B81A382A12095282322A3789441
:102220000E944D10E2E0F1E031E0C12C21912F3FFE
:1022300059F1A22FA295AF70B0E090968C9190E0EA
:102240002F7002C0959587952A95E2F780FD1CC0F6
:10225000832FC82A330F81E0E930F80739F7F701F7
:1022600080818F3F11F00E94B11061E0C11001C068
:1022700060E08D2D0E944F10C00FD11FC882CDB7D6
:10228000DEB7E8E00C94C02580E0E3CFADE0B0E03D
:10229000ECE4F1E10C94AA2580910F01811127C093
:1022A00086E0E6E5F1E0DE01189601900D928A9550
:1022B000E1F7FE013896A9E0B1E0CE010E969F014C
:1022C00041914D93E817F907D9F787E0ECE5F1E084
:1022D000DE01119601900D928A95E1F7FE0131968B
:1022E000A2E0B1E081918D93E217F307D9F78091D5
:1022F0000F0196E0811190E09093870286E0891BA0
:1023000080936E020E94C8108CE0EBE7F2E0DF01E0
:10231000982F1D929A95E9F7EFE6F2E0DF011D9202
:102320008A95E9F786E00E94D9110E94E8022D966D
:10233000E2E00C94C625ACE0B0E0E1EAF1E10C94F7
:10234000A7258E010F5F1F4F8CE0F80111928A952F
:10235000E9F7F12C6F2DC8010E94E810F394F6E024
:10236000FF12F8CF4CE050E0B8018FE692E00E94F7
:10237000F32521E0009709F420E0892B41F08CE05F
:10238000F801AFE6B2E001900D928A95E1F7609115
:10239000870270E065587D4F46E08FE692E00E942C
:1023A000DA11182F0E945610812B2C96E5E00C9420
:1023B000C3250895CF92DF92EF92FF920F931F9360
:1023C000CF936C017B01042F222349F081E080939D
:1023D00004020E94751E9093030280930202C09132
:1023E0000402C1110AC0C0E08C2FCF911F910F9140
:1023F000FF90EF90DF90CF9008958091020290912E
:1024000003020E948D1E039770F310E0A801B6012D
:10241000C7010E94F325892B41F0A801B601C7012D
:102420000E94002610920402DFCFC0E0FBCF809113
:102430000702811107C00E948725882351F081E09F
:102440008093070281E090910702913009F080E0CB
:10245000089582E0809307020E948225F3CF0E94B4
:10246000171291E0892708950E942F1280930F017F
:102470000E94171281110E94821208950E94171261
:10248000811102C00E948512089581E09091080296
:102490009A3008F080E008950F931F93CF93DF9355
:1024A000EC018B01809108028A30B8F4B801CE01AA
:1024B0000E94D012C82F811122C0809108028F3F44
:1024C000B9F40E94751E90930602809305028C2F2A
:1024D000DF91CF911F910F91089580910502909106
:1024E00006020E948D1E843F914000F7C0E0EFCFAE
:1024F0008F5F809308028A3020F7C1E0E8CF109206
:102500000802E5CF0E94AC1B08950E94AF1B0895FE
:10251000B0E0A0E0EEE8F2E10C94A5257901C82F27
:10252000880FDD0B41155105A9F0FE0193E0EE0F78
:10253000FF1F9A95E1F7E05FFE4F81819281875FEF
:102540009D4F208130E04217530708F49A01A901FA
:102550000E940026CE010E94981CD82E8823D1F01C
:1025600001151105B9F083E0CC0FDD1F8A95E1F765
:10257000FE01E05FFE4F438150E00417150708F4A9
:10258000A801C05FDE4F6C817D81675F7D4FC70111
:102590000E9400268D2DCDB7DEB7E7E00C94C12553
:1025A0000E94C21308950E94D9130895A4E0B0E0D8
:1025B000ECEDF2E10C94A8256091220270912302C7
:1025C00080912402909125020E949C1E11E06436A5
:1025D00071058105910518F10E94FF0F6E5F7F4F15
:1025E0008F4F9F4F69837A838B839C8310E000E039
:1025F00030E020E044E050E0BE016F5F7F4F82E0BA
:102600000E948812182F882351F00E94811E609327
:102610002202709323028093240290932502812F3B
:102620002496E4E00C94C425B0E0A0E0EAE1F3E1F4
:102630000C94A2257C015B016A010E94451201E015
:1026400010E0882311F00AE010E0C1E0D0E0B5010D
:10265000C701F6010995811104C021960C171D07C9
:102660002CF4CDB7DEB7EAE00C94BE25CC9F9001E8
:10267000CD9F300D300D112490E080E045E34A9568
:10268000F1F70000019682179307C1F7E0CFA7E0AA
:10269000B0E0EDE4F3E10C94A2257B01C09063016E
:1026A000D090640101E010E09E01295F3F4F50E0AF
:1026B00040E070E060E080E00E948812182F8823DC
:1026C00009F448C056018FEFA81AB80A60911E029B
:1026D00070911F0280912002909121020E949C1E05
:1026E000643671058105910568F106E010E09E01F0
:1026F0002F5F3F4F50E040E070E060E081E00E94DB
:102700008812D82E66E070E0C5010E94F01511E035
:102710009F81981310E01D2141F10E94811E60935A
:102720001E0270931F02809320029093210286E084
:10273000FE013196A8E1B2E001900D928A95E1F791
:1027400011E013C066E070E0C5010E94F0159F81A2
:102750008913CBCF86E0F6013196DE011196019008
:102760000D928A95E1F71111E2CF86E0E8E1F2E0FF
:10277000D70101900D928A95E1F7812F2796EAE023
:102780000C94BE250F931F93CF93DF93EC018B0125
:1027900047E453E10E941413882331F046ED52E1DF
:1027A000B801CE010E941413DF91CF911F910F91B8
:1027B00008950F931F93CF93DF93C0916301D0913E
:1027C0006401CE01019626E0FB01DC0101900D922F
:1027D0002A95E1F766E070E00E94F01588836F812A
:1027E000788589859A8500911402109115022091AF
:1027F000160230911702601771078207930751F094
:10280000609314027093150280931602909317023E
:102810000E94E20FDF91CF911F910F9108950E94C6
:102820005D200E94730D0E946A2008950E946F200F
:102830000E94840D0E94892008950E940E1E0E940D
:1028400043200E945B0D0E940F140E9416140E94E8
:10285000690DFBCF8091480190E0880F991FFC0122
:10286000E05CFE4F2081805D9E4FFC018081909155
:102870002C02191614F420932C0290912C0297FF2D
:1028800004C0922F919590932C0290912D021916CD
:1028900014F420932D0290912D0297FF03C02195EF
:1028A00020932D0290912F02191614F480932F0279
:1028B00090912F0297FF04C0982F919590932F022B
:1028C00090912E02191614F480932E0290912E02EC
:1028D00097FF03C0819580932E0230912C02332301
:1028E000A1F020912D02222381F045EB3403C00199
:1028F00011249923F1F090932C0245EB24039001CD
:1029000011243323D1F030932D0240912F02442320
:1029100079F030912E02332359F025EB4203A001C8
:10292000112450932F0232039001112430932E0270
:10293000089581E080932C02E0CF81E080932D0206
:10294000E4CF40914801242F30E0220F331FF901DA
:10295000E05CFE4F90818D3E21F4919590932D0285
:1029600008958E3ED9F38F3E21F4919590932C02D9
:102970000895803FD9F3205D3E4FF9019081893F52
:1029800019F490932E0208958A3F11F49195F9CF8E
:102990008B3F21F4919590932F0208958C3FD9F3AA
:1029A0009FE0980F983070F4815F990B21E030E040
:1029B00001C0220F8A95EAF780912B02822B809327
:1029C0002B0208958D3F49F481E080934801809166
:1029D000480148130E942A1408958E3F11F482E0A2
:1029E000F4CF8F3FC9F783E0F0CF8D3E39F480916B
:1029F0002D0287FF29C010922D0208958E3E29F4E2
:102A000080912D021816BCF308958F3E39F4809101
:102A10002C0287FF19C010922C020895803F29F4E0
:102A200080912C021816BCF30895893F39F48091E7
:102A30002E0218164CF410922E0208958A3F29F4A3
:102A400080912E0287FDF7CF08958B3F39F4809156
:102A50002F0287FFF9CF10922F0208958C3F29F49F
:102A600080912F021816BCF308959FE0980F9830BC
:102A700058F7815F990B21E030E0A90102C0440FB3
:102A8000551F8A95E2F7CA01809590912B02892300
:102A900080932B02D9CF0E94751E9C0190912C022D
:102AA00080912D02982B21F0309329022093280247
:102AB00090912E0280912F02982B21F030932702C3
:102AC000209326028AE292E00E94371D089586E054
:102AD000EAE2F2E0DF011D928A95E9F70895FC0130
:102AE000828181110EC0838181110BC0848181118B
:102AF00008C091E08581811101C090E0892F81702B
:102B0000089581E0FCCFA6E0B0E0E9E8F5E10C949F
:102B1000AA2586E0EAE2F2E0DE01119601900D922C
:102B20008A95E1F710922C0210922D0210922E023B
:102B300010922F028B819C81892BC1F080912802F9
:102B4000909129020E948D1EE0914801F0E0EE0F65
:102B5000FF1FE85CFE4F208131812817390730F4D0
:102B60008B8180932C028C8180932D028E819D819C
:102B7000892BC1F080912602909127020E948D1E20
:102B8000E0914801F0E0EE0FFF1FE85DFE4F20816D
:102B900031812817390730F48D8180932E028E8180
:102BA00080932F02BE016F5F7F4F8AE292E00E9406
:102BB000C61D811105C08AE292E00E946F15811145
:102BC0000E944B1586E0FE013196AAE2B2E0019028
:102BD0000D928A95E1F72696E2E00C94C6250895B9
:102BE000FC01680F791F8FEF91E3E617F70709F4EF
:102BF00008952191822728E030E087FF06C0880FE2
:102C0000892721503109C9F7F0CF880FFACFCF9328
:102C1000DF93EC01FB018281882309F464C1C43095
:102C2000FDE5DF07E0F5CB3F9CE5D90730F49E01D9
:102C300022503C4524313105D8F50E94A20C9093D6
:102C40006D0280936C02C231ECE5DE0709F41FC10E
:102C500008F06EC0C9308CE5D80709F4F2C008F05E
:102C60003FC0C530ECE5DE0709F4DBC058F5C330E2
:102C70008CE5D80709F4CDC008F0CFC080916C0274
:102C80008160C230DC4509F4AEC080916C02909145
:102C90006D020E94B00C0E942A0780E009C0C63A6B
:102CA000EDE5DE0751F238F4C2369DE5D90729F289
:102CB000DF91CF9108959E012E5A3D452330310575
:102CC000B8F7BBCF80916C028062C730FCE5DF07AC
:102CD00009F489C008F4B1C080916C02806483C09B
:102CE000CD309CE5D90709F4BAC070F480916C022C
:102CF0008E7FCB30FCE5DF0709F475C008F4A7C070
:102D000080916C028D7F6FC0CF309CE5D90709F4AC
:102D1000B6C008F4A8C0C031FCE5DF0709F4B3C0B1
:102D2000C131DC4509F0B1CF80916C028F7B5BC073
:102D3000C1159DE5D90709F4B4C098F5CB3FFCE572
:102D4000DF0709F472C0B8F4C4319CE5D90709F46F
:102D5000B6C008F4A2C0C531DC4509F096CF809119
:102D60006C0282FB992790F921E0922790FB82F96F
:102D700090FB83F938C0CD3F8CE5D80709F477C0C4
:102D800008F457C0CE3FECE5DE0709F474C080912B
:102D90006D028360CF3FDC4509F077CF80936D02F1
:102DA00074CFC2368DE5D80709F496C068F4C230F6
:102DB000EDE5DE0709F48CC008F477C0C330DD45CB
:102DC00009F063CF80E085C0CE3A9DE5D907E9F0F0
:102DD00068F490916C02892F8E7F90FF8160C63AD3
:102DE000DD4509F052CF80936C024FCFCF3A8DE58D
:102DF000D80789F1C03BDD4509F047CF90916D02BE
:102E0000892F877F93FF8860C9CF80916D0288608A
:102E1000C5CF80916C028260E6CF80916C028460A5
:102E2000E2CF80916C028860DECF80916D0281607C
:102E3000B5CF80916D028260B1CF80916C028061CC
:102E4000D2CF0E942A0780916C028068CCCF8091FB
:102E50006C028C60C8CF80916D02877F9FCF80917C
:102E60006C028B7FC0CF80916C02877FBCCF80913A
:102E70006D028E7F93CF80916D028D7F8FCF809179
:102E80006C028F7EB0CF80916C028F7DACCF0E94A0
:102E90002A0780916C028F77A6CF80916C02837F86
:102EA000A2CF80916D028C7F79CF80916D02982F97
:102EB000909591708E7F892B90FB81F96FCF0E9446
:102EC0002A0790916C02892F97FB87F980588BCF46
:102ED00081E00E94390DD9CE90916C02892F8F7EAE
:102EE00094FF806180CF81E0E3CECF93DF93EB014D
:102EF00086319C4511F50E94A60B9A81992399F081
:102F00008A7A91E009F490E090933002811109C02F
:102F100089E20E947E0B0E94E70B80E0DF91CF9157
:102F2000089585E3F6CF80913002811104C089E2D3
:102F30000E94860BF0CF85E3FBCF81E0EFCFB0E0BE
:102F4000A0E0E5EAF7E10C949C25EC01E881F98129
:102F5000CF01815095458F3F910510F485E5F82705
:102F6000DB0112964C90442009F45EC2EF3FF1055C
:102F7000A9F0A0F0EB32FD4521F010923102A42D12
:102F800007C08091310291E0892780933102A0E04F
:102F90008A2FCDB7DEB7E0E10C94B825A0913102BD
:102FA000AA2309F4E9C010923102E03CF105F0F5E2
:102FB000E038F10508F0AAC0E034F10508F070C06F
:102FC00021E030E040E050E060E070E080E090E040
:102FD0000E2F0E94D125B09132022B2BB0913302DB
:102FE0003B2BB09134024B2BB09135025B2BB0914F
:102FF00036026B2BB09137027B2BB09138028B2BB2
:10300000B09139029B2B20933202309333024093CC
:1030100034025093350260933602709337028093E6
:10302000380290933902F983E883B2CFEF3FF1057C
:1030300009F030F621E030E040E050E060E070E080
:1030400080E090E08F01005C11090E94D125B091D1
:103050004A022B2BB0914B023B2BB0914C024B2BD5
:10306000B0914D025B2BB0914E026B2BB0914F0291
:103070007B2BB09150028B2BB09151029B2B209354
:103080004A0230934B0240934C0250934D0260939E
:103090004E0270934F028093500290935102C3CF1F
:1030A00021E030E040E050E060E070E080E090E05F
:1030B0008F01005411090E94D125B0913A022B2BA7
:1030C000B0913B023B2BB0913C024B2BB0913D02A7
:1030D0005B2BB0913E026B2BB0913F027B2BB091EA
:1030E00040028B2BB09141029B2B20933A023093EC
:1030F0003B0240933C0250933D0260933E0270932A
:103100003F0280934002909341028DCF21E030E056
:1031100040E050E060E070E080E090E08F01005817
:1031200011090E94D125B09142022B2BB09143028C
:103130003B2BB09144024B2BB09145025B2BB091DD
:1031400046026B2BB09147027B2BB09148028B2B30
:10315000B09149029B2B209342023093430240934B
:103160004402509345026093460270934702809355
:1031700048029093490257CFE034F10508F06BC044
:10318000709032028090330290903402D0913502D8
:10319000C0913602B09137025090380260903902E7
:1031A00021E030E040E050E060E070E080E090E05E
:1031B0000E2F0E94D12559016A017B018C01272D18
:1031C0002A21382D3B21492D4C215D2F5D216C2F6B
:1031D0006E217B2F7F21852D8023962D91230E94A8
:1031E000EA2509F0CCCEE03CF10508F08EC0E038CD
:1031F000F10508F0EBC0E034F10508F0B9C021E0BA
:1032000030E040E050E060E070E080E090E00E2FC1
:103210000E94D125209530954095509560957095E8
:10322000809590952721382149215D236C237B23AC
:103230008521962120933202309333024093340249
:1032400050933502609336027093370280933802B0
:10325000909339029DCEE038F105E0F470903A0287
:1032600080903B0290903C02D0913D02C0913E0282
:10327000B0913F02509040026090410221E030E066
:1032800040E050E060E070E080E090E08F010054AA
:1032900011098FCFE03CF105E0F47090420280907C
:1032A000430290904402D0914502C0914602B091F1
:1032B0004702509048026090490221E030E040E02F
:1032C00050E060E070E080E090E08F01005811096C
:1032D00070CF70904A0280904B0290904C02D09137
:1032E0004D02C0914E02B0914F025090500260903A
:1032F000510221E030E040E050E060E070E080E02A
:1033000090E08F01005C110954CFEF3FF10511F0FF
:1033100008F075CF8F01005C110921E030E040E03A
:1033200050E060E070E080E090E00E94D1252095C0
:103330003095409550956095709580959095272192
:10334000382149215D236C237B23852196212093FD
:103350004A0230934B0240934C0250934D026093CB
:103360004E0270934F02809350029093510210CE00
:103370008F010054110921E030E040E050E060E0AE
:1033800070E080E090E00E94D12520953095409536
:103390005095609570958095909527213821492109
:1033A0005D236C237B238521962120933A02309361
:1033B0003B0240933C0250933D0260933E02709367
:1033C0003F028093400290934102E2CD8F0100586A
:1033D000110921E030E040E050E060E070E080E082
:1033E00090E00E94D12520953095409550956095AC
:1033F0007095809590952721382149215D236C2374
:103400007B238521962120934202309343024093EF
:1034100044025093450260934602709347028093A2
:10342000480290934902B4CDA1E0EF3FF10509F0C5
:10343000B8F5E034F105B0F5809032029090330297
:10344000D0913402C0913502B0913602A09137027A
:10345000609038027090390221E030E040E050E0A6
:1034600060E070E080E090E00E2F0E94D1255901CD
:103470006A017B018C01282D2A21392D3B214D2FFA
:103480004C215C2F5D216B2F6E217A2F7F21A1E0D3
:10349000862D8023972D91230E94EA2509F4A0E030
:1034A000A17076CDE038F105E0F480903A0290907A
:1034B0003B02D0913C02C0913D02B0913E02A091EE
:1034C0003F0260904002709041028F010054110948
:1034D00021E030E040E050E060E070E080E090E02B
:1034E000C4CFE03CF105A0F48090420290904302EA
:1034F000D0914402C0914502B0914602A09147028A
:1035000060904802709049028F0100581109E0CF85
:1035100080904A0290904B02D0914C02C0914D0293
:10352000B0914E02A0914F026090500270905102F3
:103530008F01005C1109CCCF0F931F93CF93DF93C2
:10354000C42FD22FFC0182818823C9F040935402FA
:103550000E94751E909353028093520280E28C0F5A
:10356000883040F4C77081E001C0880FCA95EAF73F
:103570000E94D604DF91CF911F910F910895109171
:103580005402141332C080915202909153020E944F
:103590008D1E883C910548F5C0E2CD0F1D17B9F08E
:1035A00080E2810F883040F4177081E001C0880FFD
:1035B0001A95EAF70E94DD04C83048F481E09D2F97
:1035C000977001C0880F9A95EAF70E94D604802F61
:1035D0000E94CD04C83070F6D77081E001C0880F1A
:1035E000DA95EAF70E94DD04C5CF80E28C0F8830BF
:1035F00008F6C77081E001C0880FCA95EAF7F2CFDC
:103600000F939C01CB01243F4CE5340759F1A8F4FA
:10361000293DFCE53F0701F12A3D4CE53407D1F196
:10362000283D3C4591F406E221EE41EE68ED7CE553
:103630000E949C1A80E00F910895263FFCE53F0709
:10364000E9F0B0F0273F3C45F9F0FC018281882386
:1036500039F110925402EFCF07E225EE45EE69ED05
:103660007CE5E6CF06E221EE40EE64EF7CE5E0CFBC
:1036700007E225EE44EE65EF7CE5DACF06E221EEC7
:1036800042EE66EF7CE5D4CF07E225EE46EE67EF2B
:103690007CE5CECF08E221E045EE6AED7CE5C8CFBF
:1036A00081E0C9CF8EE14B9B02C08150E1F74B9B7B
:1036B000FECF08955B9880E28A95F1F75B9A0895B2
:1036C000FC013BE03A95F1F798E020E080E031E042
:1036D00040E14A95F1F7880F4B9B02C08160232798
:1036E00042E04A95F1F7000040E14A95F1F7915028
:1036F00079F790E19A95F1F799B132E03A95F1F7BF
:10370000000040E14A95F1F793FB992790F9922741
:103710002081920F90830895A1E0B0E0E2E9FBE1FF
:103720000C94A62519828C017C01E60EF11C0E1565
:103730001F0541F481E09981911180E02196E6E036
:103740000C94C2250E94521BCE0101960E94601B60
:10375000F80181938F01EBCF539A5B9A08955398A8
:103760005B9AEB9AE9E6F0E080818F73808308959D
:103770006150770B91E001C0990F6A95EAF720E05C
:1037800031E0911108C0222391F05B9A80E28A9582
:10379000F1F75B980895492F482339F05B9A232766
:1037A00040E24A95F1F79695ECCF5B98F9CF5B989C
:1037B000EDCFFF920F931F93CF93DF93EC018C011A
:1037C000060F111DC017D10729F4CDB7DEB7E5E00C
:1037D0000C94C325F9900E945A1B68E08F2D0E941B
:1037E000B81BF0CF1F920F920FB60F9211240F93B8
:1037F0001F932F933F934F935F936F937F938F9379
:103800009F93AF93BF93EF93FF93CF93DF930F9269
:10381000CDB7DEB719820E94521BCE0101960E94DD
:10382000601B082F069506950695282F2295257072
:10383000902F9570290F922F937026952695920FB1
:10384000982797708981982B09F05CC0043008F0A4
:1038500059C080E18A95F1F75B9A539A82E08A9584
:10386000F1F700C05B9888E0089F80011124D8011F
:10387000A05FBE4F1696ED91FC9117973097A9F077
:10388000609163017091640114962D913C9115979C
:10389000260F371F11968D919C911297680F791FF3
:1038A00013964C9113978C910995F801E05FFE4FA8
:1038B0006381662351F0209163013091640184811A
:1038C0009581820F931F0E94D91B0E945A1B80E191
:1038D0008A95F1F75B9853985B9A80E18A95F1F7A6
:1038E000F801E05FFE4F6081662351F02091630193
:1038F0003091640181819281820F931F0E948C1B01
:103900000E94521B0F90DF91CF91FF91EF91BF91D9
:10391000AF919F918F917F916F915F914F913F9167
:103920002F911F910F910F900FBE0F901F90189520
:103930000F931F93CF93DF93EC0104970CF04CC0CF
:10394000F894539A5B9885E08A95F1F700009C2FD4
:10395000969595708C2F8570980F892F837096950A
:10396000969523E0CC0FDD1F2A95E1F7980F8E0185
:10397000092B0E945A1B00C068E0802F0E94B81BD0
:1039800080E18A95F1F753985B9A4B9B1EC087E0C4
:1039900090E04B991CC0FE01E05FFE4F63816623FF
:1039A000F9F0209163013091640184819581820F47
:1039B000931F0E948C1B811113C0539A5B9A7894B9
:1039C000DF91CF911F910F91089500C0DECF019735
:1039D00029F4539A5B9A789480E0F2CF00C0D9CF53
:1039E0000E94521B80E28A95F1F75B98539A80E11E
:1039F0008A95F1F7C05FDE4F6881662351F0209110
:103A000063013091640189819A81820F931F0E9422
:103A1000D91B0E945A1B789481E0D2CF9093670102
:103A200080936601089590935B0280935A020895F3
:103A30000E941712811103C0809155020895E091F0
:103A40005A02F0915B02309729F00190F081E02D4D
:103A50000995089580E00895E0915A02F0915B0283
:103A6000309721F00280F381E02D09950895E091CF
:103A70005A02F0915B02309739F022E0DC012C937E
:103A80000480F581E02D0995089520915802309128
:103A900059022817390771F0909359028093580200
:103AA000E0915A02F0915B02309721F00680F78195
:103AB000E02D09950895209156023091570228175C
:103AC000390771F09093570280935602E0915A02A1
:103AD000F0915B02309721F00084F185E02D09958B
:103AE00008959C012E5F3F4FAC01485F5F4F80E01F
:103AF0002417350709F40895F90191919F0199233D
:103B0000B9F38F5FF5CF662349F0FC013296089632
:103B10002191261729F0E817F907D1F780E00895D9
:103B200081E008959C01FC0132969FEF80E0419175
:103B3000461751F09F3F19F4411101C0982F8F5F34
:103B40008630A9F79F3F09F40895290F311D97FD8D
:103B50003A95F90162830895FC0132960896219105
:103B6000261303C0DF0111971C92E817F907B9F774
:103B700008950E94921D08950E94AC1D089502961A
:103B800026E0FC0111922A95E9F7089546E050E0FD
:103B90000E94F32521E0892B09F420E0822F08956B
:103BA00008950E94D01D0895811106C081E0809380
:103BB0005C020E94D11D089582E0F9CF83E08093DA
:103BC0005C020E94D11D08950E94D41D089581E0D9
:103BD00080935C020E94D11D08950E94E71D089504
:103BE000089508950E94F11D0895089508950E9472
:103BF000F01D0895CF930E94F51D0E949B110E9415
:103C0000F61DC0E08C2F0E944210811105C0CF5FCD
:103C1000CC30C1F7CF91089581E0FCCF85B78068A3
:103C200085BF85B7806885BF08951F921FB61F9214
:103C300011248F939F93AF93BF9380915D02811165
:103C400013C08091880290918902A0918A02B0915C
:103C50008B024196A11DB11D809388029093890229
:103C6000A0938A02B0938B02BF91AF919F918F91E5
:103C70001F901FBE1F90189580919002843031F1E3
:103C80000E946B0310925D0288E190E020E40FB681
:103C9000F894A895809360000FBE2093600083B7CE
:103CA000817F846083BF83B7816083BF7894889568
:103CB00083B78E7F83BF0FB6F894A895809160007C
:103CC000886180936000109260000FBE08950E948A
:103CD0002A070E947003089582E084BD93E095BD99
:103CE0009AEF97BD80936E0008952FB7F894809156
:103CF000880290918902A0918A02B0918B022FBF15
:103D000008952FB7F894609188027091890280918C
:103D10008A0290918B022FBF08959C014FB7F894AF
:103D20008091880290918902A0918A02B0918B02C1
:103D30004FBF821B930B0895CF92DF92EF92FF92B9
:103D40002FB7F894C0908802D0908902E0908A0240
:103D5000F0908B022FBFA7019601261B370B480B53
:103D6000590BCA01B901FF90EF90DF90CF900895F1
:103D700078941F921FB61F9211248F939F93AF9335
:103D8000BF938091880290918902A0918A02B0919C
:103D90008B020196A11DB11D809388029093890228
:103DA000A0938A02B0938B02BF91AF919F918F91A4
:103DB0001F901FBE1F90189587E797E79093010803
:103DC0008093000888E19AE00FB6F894A895809354
:103DD00060000FBE90936000FFCF88E19AE00FB6BD
:103DE000F894A895809360000FBE90936000FFCF79
:103DF000809166020895089508959C0182E0809361
:103E0000E9009FEF8091E800915085FD06C085EDA7
:103E10008A95F1F700009111F5CF8091E80085FFB8
:103E20000CC050E040E066E070E0C9010E94FB2059
:103E30008091E8008E778093E8000895CF93DF9318
:103E4000EC0181E08093E9008FEF9091E8008150D0
:103E500095FD06C095ED9A95F1F700008111F5CF1B
:103E60008091E80085FF14C050E040E068E070E019
:103E7000CE010E94FB208091E8008E778093E800BD
:103E800088E0FE01AEE5B2E001900D928A95E1F77F
:103E9000DF91CF910895089580918F02811109C01B
:103EA0000E948B220E94E8228091E200846080932D
:103EB000E200089510928F0208950E94E71D089570
:103EC00060918C0281E0611101C080E00E94DE1DE2
:103ED00008959091900281E0943009F080E0609123
:103EE0008C020E94E41D089542E061EC81E00E9492
:103EF000072242E261EC82E00E9407229091900248
:103F000081E0943009F080E060918C020E94D41D21
:103F1000089580919202833009F461C030F48130B9
:103F2000D1F1823009F49EC008958A3009F48AC024
:103F30008B3009F46FC0893009F050C08091910234
:103F4000813209F04BC080919502909196020297C0
:103F500008F044C08091E800877F8093E80080915A
:103F6000E80082FF37C09091F3008091F200029741
:103F700031F48091F100813011F0863021F480918C
:103F8000F100809366028091E8008B778093E800CF
:103F90000E943B2223C080919102813AF9F48091E2
:103FA000E800877F8093E8008091950290919602C7
:103FB000892B61F468E08EE592E070E00E944A216E
:103FC0008091E8008B778093E800089560E090E0AE
:103FD00080E0F3CF809190028111C1CF089580914C
:103FE0009102813AD9F78091950290919602892B9E
:103FF000A9F78091E800877F8093E8008091E8002E
:1040000080FFFCCF809155018093F1008091E80002
:104010008E77BCCF80919102813201F78091950219
:1040200090919602892BD1F68091E800877F80934A
:10403000E8000E943B2280919302809355010E94E8
:104040002A07089580919102813241F68091E8001B
:10405000877F8093E8000E943B22809194028093A6
:104060006702089580919102813A09F0B7CF80915B
:10407000E800877F8093E8008091E80080FFFCCF14
:1040800080916702C1CF84B7877F84BF0FB6F89451
:10409000A895809160008861809360001092600014
:1040A0000FBE80E890E00FB6F89480936100909383
:1040B00061000FBE0E94ED1D08950E948B220E9498
:1040C000E822E2EEF0E080818460808378940E94B0
:1040D0006725089589E491E00E94131D0895809159
:1040E0009002853031F480919002853019F00E9461
:1040F000671E08950E943C1E80918E02882399F3CA
:104100000E94FA1D882379F30E94E5200E942A0765
:10411000EACF08950E948D200895292F3327233058
:10412000310519F168F42130310509F444C0223019
:10413000310509F445C090E080E030E020E025C082
:104140002132310549F122323105A9F780E490E0AE
:1041500024EB34E061157105C1F089E490E02BE6B1
:1041600034E06130710589F0E6CF992781309105FF
:1041700081F0009729F00297F1F6E4EFF3E002C036
:10418000EAE1F4E0849190E09F01FA013183208319
:104190000895ECE0F4E0F6CF89E090E020E334E02D
:1041A0006115710591F389E090E029E434E0613014
:1041B000710559F3C0CF82E190E029E534E0E5CF05
:1041C0008BE390E02EE134E0E0CF80E189BD82E135
:1041D00089BD09B400FEFDCF8091D8008F7D80930A
:1041E000D8008091E00082608093E0008091E00040
:1041F00081FDFCCF0895AF92BF92CF92DF92FF92E4
:104200000F931F93CF93DF936C01EB018A010E9400
:104210005A22F82E811123C00115110539F0F80139
:1042200080819181C81BD90BC80ED91EB12CA12C3D
:104230002097A9F08091E80085FD22C08091E800D8
:104240008E778093E80001151105A1F0F8018081B7
:104250009181A80EB91EB182A08285E0F82E8F2D23
:10426000DF91CF911F910F91FF90DF90CF90BF9082
:10427000AF9008950E945A228823D1F2F82EEFCFF2
:10428000F60181916F018093F1002197FFEFAF1A42
:10429000BF0ACECFFC0180919702909198028617B9
:1042A0009707A0F06115710529F49091E8009E77B9
:1042B0009093E80090E06115710551F4911108C0E8
:1042C0008091E80082FF34C080E00895BC01F2CF05
:1042D000809190028823C1F18530C1F18091E8007E
:1042E00083FD30C08091E80082FDEACF8091E80034
:1042F00080FFE1CF8091F3002091F200382F61150B
:10430000710519F02830310558F091E02830310559
:1043100009F090E02091E8002E772093E800CBCFC1
:1043200081918093F100615071092F5F3F4FE7CF7A
:1043300080919002882341F0853041F08091E8001F
:1043400083FFBECF81E0089582E0089583E0089561
:10435000FC01809197029091980286179707A0F030
:104360006115710529F48091E8008E778093E8004B
:1043700090E06115710551F4911108C08091E80039
:1043800082FF35C080E00895BC01F2CF8091900299
:104390008823C9F18530C9F18091E80083FD31C0DF
:1043A0008091E80082FDEACF8091E80080FFE1CFB4
:1043B0008091F3002091F200382F6115710519F0FA
:1043C0002830310558F091E02830310509F090E0AF
:1043D0008091E8008E778093E800CBCF8491809322
:1043E000F1003196615071092F5F3F4FE6CF809108
:1043F0009002882341F0853041F08091E80083FFEE
:10440000BDCF81E0089582E0089583E00895982F5C
:10441000973028F08F708093E90081E008959093A1
:10442000E900242F762F50E0981731F07091EC00BE
:104430002091ED005091F00021FD02C09F5FE8CF78
:104440003091EB003E7F3093EB003091ED003D7FEB
:104450003093ED003091EB0031603093EB007093BE
:10446000EC002093ED005093F0002091EE0027FD2A
:10447000E5CF80E008958091910287FF13C080917D
:10448000E80082FF06C08091E8008B778093E80007
:1044900004C0809190028111F2CF08958091900222
:1044A0008823D9F38091E80080FFF8CF8091E8005D
:1044B0008E77ECCF2091E4003091E50095E6A901DC
:1044C0002091EC00822F817020FF06C08091E800CF
:1044D00080FF06C080E008952091E80022FD1AC008
:1044E00080919002882389F0853089F08091EB00DB
:1044F00085FD0FC02091E4003091E500421753077D
:10450000F9F29150E1F684E0089582E0089583E0A5
:10451000089581E008950E94FA220E940223E0EEAD
:10452000F0E0808181608083E8EDF0E080818F772A
:10453000808319BCA7EDB0E08C918E7F8C93808135
:104540008F7E808310928F0208950F931F93CF93D5
:10455000DF930E94FA220E940223C8EDD0E08881F6
:104560008F77888388818068888388818F7D88831E
:1045700019BC1092900210928C0210928E0210922E
:104580008D0200EE10E0F80180818B7F80838881AE
:104590008160888342E060E080E00E940722E1EED3
:1045A000F0E080818E7F8083E2EEF0E080818160A8
:1045B0008083808188608083F80180818E7F808302
:1045C000888180618883DF91CF911F910F91089539
:1045D000E8EDF0E080818F7E8083E7EDF0E0808180
:1045E0008160808384E082BF81E080938F020E949B
:1045F000A5220895E8EDF0E080818E7F80831092FF
:10460000E20008951092DA001092E10008951F92DE
:104610000F920FB60F9211242F933F934F935F93F6
:104620006F937F938F939F93AF93BF93EF93FF937A
:104630008091E10082FF0BC08091E20082FF07C001
:104640008091E1008B7F8093E1000E94662580913C
:10465000DA0080FF19C08091D80080FF15C08091DA
:10466000DA008E7F8093DA008091D90080FF96C0B7
:1046700080E189BD82E189BD09B400FEFDCF81E002
:10468000809390020E944C1F8091E10080FF19C02E
:104690008091E20080FF15C08091E2008E7F8093C0
:1046A000E2008091E20080618093E2008091D80076
:1046B00080628093D80019BC85E0809390020E94AC
:1046C000601F8091E10084FF2BC08091E20084FF95
:1046D00027C080E189BD82E189BD89B5982F91709D
:1046E00080FFFBCF8091D8008F7D8093D800809190
:1046F000E1008F7E8093E1008091E2008F7E8093C5
:10470000E2008091E20081608093E20080918C025F
:10471000882309F449C084E0809390020E94691FB5
:104720008091E10083FF29C08091E20083FF25C0D2
:104730008091E100877F8093E10082E08093900286
:1047400010928C028091E1008E7F8093E100809135
:10475000E2008E7F8093E2008091E200806180938E
:10476000E20042E060E080E00E9407228091F000D9
:1047700088608093F0000E945D1FFF91EF91BF91D0
:10478000AF919F918F917F916F915F914F913F91E9
:104790002F910F900FBE0F901F90189519BC10927B
:1047A00090020E945A1F70CF8091E30087FD93E032
:1047B00090939002B3CF1F920F920FB60F921124D5
:1047C0002F933F934F935F936F937F938F939F9319
:1047D000AF93BF93CF93DF93EF93FF93D091E90013
:1047E000DF708091EC00C82FC17080FDC0E810928E
:1047F000E9008091F000877F8093F00078940E9418
:104800001F241092E9008091F00088608093F000EE
:10481000CD2BCF70C093E900FF91EF91DF91CF9145
:10482000BF91AF919F918F917F916F915F914F91C8
:104830003F912F910F900FBE0F901F901895AAE2F5
:10484000B0E0E5E2F4E20C94A92581E992E0209140
:10485000F100FC012193CF01F2E089399F07B9F7FC
:104860000E94891F8091E80083FF1EC18091910200
:10487000909192029A3008F017C1E92FF0E0E75AC0
:10488000F94D0C949425803899F0823809F00CC1C8
:10489000809195028F70873008F006C18093E900FF
:1048A0008091EB0085FB882780F91092E90006C013
:1048B00080918D0290918E02911182609091E8001A
:1048C000977F9093E8008093F1001092F10080911F
:1048D000E8008E77E5C0882309F4D3C0823009F060
:1048E000E3C0809193028111D6C0809195028F70B0
:1048F0002FEF280F263008F0D7C08093E9002091D1
:10490000EB0020FFC8C0933031F48091EB0080624F
:104910008093EB00C0C09091EB0090619093EB000E
:1049200021E030E001C0220F8A95EAF72093EA00E7
:104930001092EA008091EB008860EACF8111B4C048
:10494000109193021F778091E3008078812B8093F0
:10495000E3008091E800877F8093E8000E943B227B
:104960008091E80080FFFCCF8091E3008068809315
:10497000E30082E0111183E08093900295C080589B
:10498000823008F091C080919302909194028C3D06
:1049900023E09207A1F583E08A838AE289834FB7F7
:1049A000F894DE01139620E03EE051E2E32FF0E0C0
:1049B00050935700E49120FF03C0E295EF703F5FF2
:1049C000EF708E2F90E0EA30C0F0C7968D939D93E4
:1049D0002F5F243159F74FBF8091E800877F809384
:1049E000E8006AE270E0CE0101960E944A218091BF
:1049F000E8008B778093E80057C0C096E7CF6091BE
:104A0000950270919602AE014F5F5F4F0E948A201F
:104A1000BC01892B09F448C09091E800977F9093DE
:104A2000E80089819A810E94A821E1CF8038E1F5D0
:104A30008091E800877F8093E80080918C028093CA
:104A4000F10045CF811130C090919302923060F512
:104A50008091E800877F8093E80090938C020E9409
:104A60003B2280918C02882311F084E005C0809164
:104A7000E30087FDFACF81E0809390020E94741FCB
:104A800013C080919302813079F481E0933009F072
:104A900080E080938E021092E9008091E800877F89
:104AA0008093E8000E943B228091E80083FF0AC0C7
:104AB0008091E800877F8093E8008091EB0080621E
:104AC0008093EB00AA96E3E00C94C5250895CF935C
:104AD000809190028823A1F0C091E900CF7090915D
:104AE000EC00892F817090FD80E8C82B1092E900BE
:104AF0008091E80083FD0E941F24CF70C093E900DD
:104B0000CF9108950E948B22109290020895E8EDB3
:104B1000F0E08081806180838AE18A95F1F700C0AE
:104B20008091D90081700895EE0FFF1F0590F491D8
:104B3000E02D09942F923F924F925F926F927F9255
:104B40008F929F92AF92BF92CF92DF92EF92FF929D
:104B50000F931F93CF93DF93CDB7DEB7CA1BDB0B49
:104B60000FB6F894DEBF0FBECDBF09942A883988EE
:104B700048885F846E847D848C849B84AA84B984F5
:104B8000C884DF80EE80FD800C811B81AA81B98101
:104B9000CE0FD11D0FB6F894DEBF0FBECDBFED0115
:104BA0000895002E083090F0982F872F762F652FCC
:104BB000542F432F322F22270850F4CF220F331FB8
:104BC000441F551F661F771F881F991F0A95B2F74C
:104BD000002D08952A153B054C055D056E057F05E2
:104BE000800791070895FB01DC0104C08D910190BD
:104BF000801921F441505040C8F7881B990B089543
:104C0000FB01DC0102C001900D9241505040D8F7E9
:104C10000895F999FECF92BD81BDF89A992780B584
:104C20000895A8E1B0E042E050E00C943D26262F24
:104C3000F999FECF92BD81BDF89A019700B4021692
:104C400039F01FBA20BD0FB6F894FA9AF99A0FBE40
:104C500008950396272F0E9418260E941726252FB5
:104C60000E941826242F0C9418260196272F0E94A4
:104C700018260C941726DC01CB01FC01F999FECF14
:104C800006C0F2BDE1BDF89A319600B40D924150D4
:104C90005040B8F70895F894FFCF1F051F05500541
:104CA00050057F05E5057F057F05F0056106700667
:104CB000700643246B2454256B2454259E24BF2462
:064CC000542516252225F3
:104CC600E001F4F5F6F7313332946697C6343501D0
:104CD60000000001000000000000000601000000C6
:104CE6000407000000000000280068017800140096
:104CF600010001000100010010002000100010005A
:104D0600100001000400200002F81E1E1FFD1EFBFD
:104D16001E4B1FFC1E01919094669793F7F6F5F4CF
:064D26003534C60902004D
:00000001FF
